:1000000001308A0076290000FF00030E8301A10061
:100010000A08A0008A010408A2007708A300780853
:10002000A4007908A5007A08A600831383128C30F7
:100030008400801E1D288C1A2E2822088400230884
:10004000F7002408F8002508F9002608FA0020081F
:100050008A00210E8300FF0E7F0E09008A110A120A
:1000600061280130D5004030D4006730F700F70B2D
:1000700037283A28D40B4128D50B4128A801F8018C
:100080004B288C1E35281808A8001A08F800A81C50
:100090004B281812181608005430840083130008E7
:1000A000031960280130F800F701F70B5528F80B09
:1000B00054284A30F700F70B5B285E28800B522843
:1000C0000800C2104208831687008312871431206B
:1000D0007808A90031207808AA0031207808AB0000
:1000E00029084D3C031D8E284211420883168700C3
:1000F000831207152A08313C031986282A08213C57
:10010000031986282A08413C031D8E28AB080319D1
:100110008E288316860183122B088600C830D400EF
:100120004C20C210420883168700831287104211A8
:10013000420883168700831207118C128A110A1253
:100140001D28421042088316870083120714A70156
:100150008B1BA7178B130530D4004C20A71B8B17C4
:100160001130A9004408AA000130AB00AC004508DA
:10017000AD00C8012930C700CA012830C900D530F8
:10018000CB004808CD004708CC004D08FA004C08C9
:10019000CC0A0319CD0A840083137A188317000848
:1001A000CE00D001CF0101304902F7004A08FA0021
:1001B0000030031C0130FA027708F80050087A0278
:1001C000031C3529031DE82878084F020318352938
:1001D000D1015108073C031C2E29CE1B0D29031009
:1001E000CE0D4D08FA004C08840083134D18831778
:1001F0000008D2005108073CD3005208F70053080A
:10020000F800031907290310F70CF80B0329771CD2
:100210000B294E140C294E102C290310CE0D4D081D
:10022000FA004C08840083134D1883170008D2008D
:100230005108073CD3005208F7005308F80003198F
:1002400025290310F70CF80B2129771C29294E14B6
:100250002A294E104B08CE06D10AE928CC0A0319E8
:10026000CD0ACF0A0319D00AD328D1015108073C7F
:10027000031C4529CE1B3F290310CE0D4329031033
:10028000CE0D4B08CE06D10A36294E08F800780864
:10029000C10083168601831241088600C601460804
:1002A000043C031C5F29293046078400831300089F
:1002B000C70047080C1E5A299900C60A4F29410851
:1002C0000C1E60299900A7018B1BA7178B133230D6
:1002D000D4004C20A71B8B174210420883168700BE
:1002E000831207100C128A110A12A229A8011930D0
:1002F00083169900A6309800903083129800FF3042
:10030000C20083161F149F141F159F1107309C00F5
:1003100083131F308305831242104208831687001F
:1003200083120710C0308B048C1283168C16831234
:100330000C12C301430F9D29B1292130C400430889
:10034000C500A1280C30C400A7018B1BA7178B1375
:10035000FA30D4004C20A71B8B17C40BA429C30A66
:040360009A29630073
:02400E00393F38
:00000001FF
;PIC16F877A
;CRC=8689  CREATED="18-May-21 17:59"
