:1000000005308A00AB2D0000FF00030E8301A10024
:100010000A08A0008A010408A2007708A300780853
:10002000A4007908A5007A08A600831383128C30F7
:100030008400801E1D288C1A34288C308400801D7A
:1000400023288C193728220884002308F700240865
:10005000F8002508F9002608FA0020088A00210E79
:100060008300FF0E7F0E09008A110A1263288A118D
:100070000A1242280A108A100A11820728340C3406
:10008000013406348C118A110A1223282030831679
:10009000A6006730F700F70B4B284E28A60B552813
:1000A0008312A701F8016228831683128C1A5A283A
:1000B000831649281808A7001A08F800A71C622808
:1000C000181218160800E4106408831687008312BB
:1000D0008714D10146207808A80046207808A90096
:1000E00046207808AA0046207808AB004620780809
:1000F000AC0046207808D0008316A7012830A6005F
:10010000A901A800D530AA002708AC002608AB003A
:100110002C08FA002B08AB0A0319AC0A84008313DD
:100120007A1883170008AD00AF01AE010130280234
:10013000F7002908FA000030031C0130FA027708A2
:10014000F8002F087A02031CF828031DAB28780852
:100150002E020318F828B0013008073C031CF128D0
:10016000AD1BD0280310AD0D2C08FA002B0884001D
:1001700083132C1883170008B1003008073CB20025
:100180003108F7003208F8000319CA280310F70CE9
:10019000F80BC628771CCE282D14CF282D10EF2859
:1001A0000310AD0D2C08FA002B08840083132C18C3
:1001B00083170008B1003008073CB2003108F7008F
:1001C0003208F8000319E8280310F70CF80BE428AC
:1001D000771CEC282D14ED282D102A08AD06B00A46
:1001E000AC28AB0A0319AC0AAE0A0319AF0A962869
:1001F000B0013008073C031C0829AD1B022903107D
:10020000AD0D06290310AD0D2A08AD06B00AF92878
:100210002D08F80078088312D300E41064088316D0
:100220008700831287106410640883168700831286
:1002300007148C128A110A1223280C10E939F4329F
:10024000EE32EE1E2533A0212005A029C921C125AB
:10025000CC24CB1E2519AE18661043100000733055
:10026000840083130008031943290130F800F701C3
:10027000F70B3829F80B37294A30F700F70B3E29DE
:100280004129800B352908007E0EF039F7000F3028
:10029000080577048800000008144E29081008009B
:1002A0000808F700080E0F39F80008008316081038
:1002B00088100811831288100F3083160805F03853
:1002C00088008312081500000814000050217808E7
:1002D000FE00081000000814000050217808FD00FE
:1002E00008100F308316080588007E0EF700F030E6
:1002F000F70577087D04F8007808FD00FD1F8229C6
:1003000083125C297B1887298312881083167B1C33
:100310008C298312881483160000831208110000B0
:1003200008107C0EFD000F30FD057D08FE00442105
:100330007C080F39FD00FE00442108000F308316B1
:100340000805880008108810081183128810081109
:1003500008100F30F3002F210130E5006508033C41
:10036000031CBA290330FE0044210530F3002F217D
:10037000E50AAE290230FE0044210530F3002F21AA
:10038000E5016508033C031CCE2965083A20E60018
:10039000FB016608FC005621E50AC1298A110A12F0
:1003A000012E8E30F7006808F8006708F900FA019E
:1003B000F808031DE5297908F800F9010830F7026B
:1003C000F808031DE529F701ED290310F81BEC29B6
:1003D000F90DF80DF703E529F81308007208031961
:1003E0006D2A8316A0007B08031DF82983126D2A4D
:1003F000A0070318062A7F30A0020318012A8312DF
:100400006D2A031D052A83126D2A0C2A8130A0074C
:10041000031C0C2A83126D2A2008F700F801F90149
:10042000FA017308A400A4177408A3007508A200B9
:100430001830A000A101221C352A7E08FA07031CEF
:10044000272AF90A031D272AF80A0319A1177D088C
:10045000F907031C2E2AF80A0319A1177C08F400D7
:10046000F4177408F8070318A117A10DF80CF90C7C
:10047000FA0CA40CA30CA20C0310A00B1A2A013036
:10048000F707031C452A83126D2AF81B4F2AA40D77
:10049000FA0DF90DF80DF70B4F2A83126D2AA41FE0
:1004A000622AFA0A031D622AF90A031D622AF80A5F
:1004B000031D622AF80CF90CFA0CF70A031D622AD4
:1004C00083126D2A7308A1007C08A106A11F6A2A65
:1004D000F817722AF813722A8312F701F801F9014A
:1004E000FA01831683120800740B772A7A2A4030A7
:1004F000F5007B2AF50101307302F5077508803895
:10050000F600FB017608FC00562108007208073A45
:100510000319942A0B3A0319992A063A0319A12AB6
:10052000023A0319A72AAC2A0130F300F40074221E
:10053000B12AFB010130FC0056210230F3002F21CB
:10054000B12A0130F3000230F4007422B12AFB0119
:100550001030FC005621B12A0130FB007208FC006B
:10056000562108000B08E6008B13831603178C171F
:100570000C14000000000318E42A83120C087F39D1
:100580000313E70003170D080313E80003170F0810
:100590000313E9006708F2008622680803178D003C
:1005A0000313690803178F0083168C170C140000BF
:1005B000000083120313E50BDE2AE12A83160317DA
:1005C000E42A032B8316031783120C0D0E0D7F39BB
:1005D0000313E70003170D080313E80003170F08C0
:1005E0000313E9006708F2008622680803178D00EC
:1005F0000313690803178F008D0A03198F0A03106C
:100600000313E50BB52AE61B8B17080083180B2B89
:10061000A03084008313F701F801F901FA01831671
:10062000A001A101A201A3017E087D047C047B043A
:1006300003194A2B2030A4000310F20DF30DF40D22
:10064000F50DA00DA10DA20DA30D7E082302031D23
:10065000332B7D082202031D332B7C082102031D4E
:10066000332B7B082002031C442B7B08A0027C0850
:10067000031C7C0FA1027D08031C7D0FA2027E08D3
:10068000031C7E0FA3020314F70DF80DF90DFA0DEC
:10069000A40B1C2B20088000840A21088000840AF7
:1006A00022088000840A23088000831208000408BE
:1006B000EA006908EC000319762B6808F500670862
:1006C000F4006608F3006508F200FE01FD01203029
:1006D000FC008230FB00EE217A08E8007908E70090
:1006E0007808E6007708E500EC0B5D2B6808F5005C
:1006F0006708F4006608F3006508F2007208B63C6B
:10070000F200FA017308F600F3170310F30CF40C6F
:10071000F50CFA0CF90CF80CF70CF20B852BF61F04
:100720009C2BF709F809F909FA09F70A0319F80ADD
:100730000319F90A0319FA0A7A08E8007908E700A8
:100740007808E6007708E500E81FB32BEA03EA160D
:10075000E509E609E709E809E50A0319E60A0319C4
:10076000E70A0319E80A3B30F1009A30F000CA307A
:10077000EF00EE010A30EC0069080319EA0A83145D
:100780006530840083136808F5006708F400660884
:10079000F3006508F2007108FE007008FD006F08A4
:1007A000FC006E08FB0006237808F708031DEB2BFE
:1007B000690A6C020319EB2B6A080319ED2B0F3938
:1007C0006C020319E52B03181D2CEA1B1D2C6A1B58
:1007D000ED2B2030192C2030EA05EA1EFB2BEA1203
:1007E0006908031DEA037708EA002D30F20086222B
:1007F0006A08F700EA0169086C02031D092C7708F2
:10080000EA002E30F20086226A08F7002030EA055E
:1008100000303030EA1E192CEA126908031DEA0381
:100820007708EA002D30F20086226A08F700EA0114
:100830003030F7077708F200862283107108F50040
:100840007008F4006F08F3006E08F200FE01FD016D
:10085000FC010A30FB0006237A08F1007908F00059
:100860007808EF007708EE00EC0BBF2B08001F158F
:100870001F19382C1E08FA0083161E088312E50083
:100880001E08E600E8006508E700D1217A08F500B7
:100890007908F4007808F3007708F2003530FE009C
:1008A0005E30FD007A30FC007D30FB00EE217A08DE
:1008B000D7007908D6007808D5007708D4000C3026
:1008C000F700F70B612C642C00005708DF00560876
:1008D000DE005508DD005408DC001D3003178D00D4
:1008E00001308F0003100A300313E500B222893073
:1008F00084006308E8006208E7006108E600600819
:10090000E5000230E9005723233003178D00013042
:100910008F0003100E300313E500B2220130840073
:100920005F08E8005E08E7005D08E6005C08E50097
:100930000130E90057232030F20086224330F200D4
:1009400086222030F20086225F08E8005E08E70079
:100950005D08E6005C08E5008E30F7006508F702E8
:100960006608F9006708F800F917F7080319C32C9F
:100970000310F908031DBF2CF8080319C32CF90C48
:10098000F80CF70BB82CE61FCA2CF809F909F80A7D
:100990000319F90A7808D2008A110A120C2E63088A
:1009A000E8006208E7006108E6006008E5005F080B
:1009B000EC005E08EB005D08EA005C08E9006608F0
:1009C000ED006A08ED06ED1FEA2C03110310E61B8B
:1009D00003141D2D6608ED006908EE006508EE029F
:1009E0000319F82CED1F1D2D0308013A83001D2D5E
:1009F0006A08EE006608EE020319042DED1F1D2D96
:100A00000308013A83001D2D6B08EE006708EE0213
:100A10000319102DED1F1D2D0308013A83001D2D14
:100A20006C08EE006808EE0203191C2DED1F1D2D49
:100A30000308013A83001D2D03100318212D031D07
:100A4000282DE411640883168700831287152E2D44
:100A5000E411640883168700831287118A110A1231
:100A60000D2E2A0B4D2D6410640883168700831207
:100A700007144D300C1E3A2D990033300C1E3E2DBC
:100A8000990000300C1E422D9900AA0164106408E0
:100A900083168700831207100C128A110A120E2E79
:100AA00064106408831687008312071447300C1EF5
:100AB000572D990031300C1E5B2D990052080C1EE9
:100AC0005F2D99000530F3002F2164106408831610
:100AD0008700831207100C128A110A120F2E64105D
:100AE000640883168700831207142808113C031D2D
:100AF000A12D2908213C031DA12D50085302031DDF
:100B0000992DE8012C08E700D1217A08E300790843
:100B1000E2007808E1007708E0008316860183127E
:100B20002C0886006411640883168700831207115D
:100B3000A12D0130D100641164088316870083124F
:100B400007156410640883168700831207100C12BF
:100B50008A110A12102EA701193083169900A630A7
:100B60009800903083129800D701D601D501D401A6
:100B7000DB01DA01D901D801E301E2012030E10013
:100B80008230E000FF30E40083161F149F141F150D
:100B90009F1107309C0083131F308305831264105C
:100BA0006408831687008312071064106408831694
:100BB000870083120710C0308B0483168C168312B3
:100BC0000C128C12831686018312860183161F1362
:100BD00083121F139F1783169F1783121F148316E8
:100BE0001F109F141F159F150030F80083121F0857
:100BF000C73978049F000930F700F70BFD2D002E50
:100C00009E298C1A182E831686018312530886009B
:100C1000FA30F3002F21372CCF2C312D502D6F2D92
:100C20000330E500FA30F3002F21E50B122E012EE0
:020C300063005F
:02400E00393F38
:00000001FF
;PIC16F877A
;CRC=D44B  CREATED="19-May-21 00:03"
